:020000040800F2
:1000000008040020391C0008730D0008750D000855
:10001000770D0008790D00087B0D00080000000036
:100020000000000000000000000000007D0D00083E
:100030007F0D000800000000810D0008830D0008FE
:10004000751C0008791C00087D1C0008811C000834
:10005000851C0008891C00088D1C0008911C0008E4
:10006000951C0008991C00089D1C0008A11C000894
:10007000A51C0008A91C0008AD1C0008B11C000844
:10008000B51C0008B91C0008BD1C0008C11C0008F4
:10009000C51C0008C91C0008CD1C0008D11C0008A4
:1000A000D51C0008D91C0008DD1C0008E11C000854
:1000B000E51C0008E91C0008ED1C0008F11C000804
:1000C000F51C0008F91C0008FD1C0008011D0008B3
:1000D000051D0008091D00080D1D0008111D000860
:1000E000151D0008191D00081D1D0008211D000810
:1000F000251D0008291D00082D1D0008311D0008C0
:10010000351D0008391D00083D1D0008411D00086F
:10011000451D0008491D00084D1D0008511D00081F
:10012000551D0008591D00085D1D0008611D0008CF
:1001300010F00702DFF8E0391B6819004FF6FF03E3
:100140001940DFF8D83953EA02231943DFF8C839D8
:1001500019607047DFF8C809006850F48030DFF894
:10016000C01908607047DFF8B8090068400C10F04B
:1001700001007047DFF8AC1909688908890001435C
:10018000DFF8A02911607047DFF89809006810F0C7
:100190000C007047DFF88C19096831F0F001014359
:1001A000DFF8802911607047DFF87819096831F4A9
:1001B000E0610143DFF86C2911607047DFF86419D2
:1001C000096831F460510143DFF858291160704724
:1001D000DFF84C09006850F08070DFF844190860BF
:1001E0007047DFF83C090068400E10F001007047CE
:1001F000DFF83029126832F47C1210F440331A43CD
:100200000A43DFF820391A60704781B0DFF8181907
:1002100009680143DFF810291160DFF80C1909683B
:100220000140009101B0704781B0DFF80019096802
:100230000143DFF8F8281160DFF8F0180968014081
:10024000009101B07047DFF8E8180968C908C900D3
:100250000143DFF8DC2811607047DFF8D40800683C
:1002600010F007007047042808D1DFF8C8180968A3
:1002700051F00401DFF8BC28116007E0DFF8B41882
:10028000096831F00401DFF8AC281160704701689B
:1002900051F0800101607047016831F08001016018
:1002A000704770B4012901D1002216E0042901D160
:1002B000012212E0102901D102220EE0402901D1D1
:1002C00003220AE0B1F5807F01D1042205E0B1F5F7
:1002D000806F01D1052200E0062210F11803DFF83B
:1002E0005848D2B2145DE3181C680425DFF84C6846
:1002F000D2B2965DB540AC431C6070BC704770B420
:10030000012901D1002216E0042901D1012212E0C5
:10031000102901D102220EE0402901D103220AE076
:10032000B1F5807F01D1042205E0B1F5806F01D1E4
:10033000052200E0062210F11803DFF8FC47D2B2D4
:10034000145DE3181C680825DFF8F067D2B2965DEB
:10035000B5402C431C6070BC7047F0B4012901D13A
:10036000002316E0042901D1012312E0102901D154
:1003700002230EE0402901D103230AE0B1F5807F7A
:1003800001D1042305E0B1F5806F01D1052300E020
:10039000062310F11804DFF8A057DBB25D5D2C19BD
:1003A00025680326DFF89877DBB2DF5DBE40B543F2
:1003B000160CDFF88C77DBB2DF5DBE40354325607D
:1003C000F0BC7047F0B4012901D1002316E00429E4
:1003D00001D1012312E0102901D102230EE04029AE
:1003E00001D103230AE0B1F5807F01D1042305E0A8
:1003F000B1F5806F01D1052300E0062310F1180448
:10040000DFF83457DBB25D5D2C1925680C26DFF868
:100410003077DBB2DF5DBE40B543160CDFF82077E6
:10042000DBB2DF5DBE4035432560F0BC7047F0B401
:10043000012901D1002316E0042901D1012312E092
:10044000102901D102230EE0402901D103230AE043
:10045000B1F5807F01D1042305E0B1F5806F01D1B2
:10046000052300E0062310F11804DFF8CC56DBB2B8
:100470005D5D2C192568F026DFF8C476DBB2DF5D00
:10048000BE40B543160CDFF8B876DBB2DF5DBE4088
:1004900035432560F0BC704770B4012901D10023B9
:1004A00016E0042901D1012312E0102901D1022311
:1004B0000EE0402901D103230AE0B1F5807F01D18C
:1004C000042305E0B1F5806F01D1052300E0062388
:1004D000046A0A25DFF86C66DBB29E5DB540AC436A
:1004E000DFF86056DBB25D5D12FA05F52C4304625D
:1004F00070BC70478268DFF850361A400A43826049
:100500007047426832F070020A4342607047816867
:1005100031F0800181607047C1F30F2202617047A2
:10052000C1F30F2242617047DFF82006006830F007
:10053000E060DFF818160860DFF810060068DFF8E2
:100540000C160860704700B5A5B00120FFF76CFEDF
:100550005FF08050FFF759FE0320FFF7E9FDFFF73A
:10056000E3FF00F013F800F072FA00F048F800F032
:1005700005F900F09CF900F0F2F900F0A0F800A8ED
:1005800000F026FB00A800F072FBFBE780B502201C
:10059000FFF759FEFFF761FE022801D000F0F8FADC
:1005A000FFF7D8FDFFF7DFFD0128FBD15FF4E01175
:1005B0005FF48030FFF71CFEFFF70AFEFFF711FE25
:1005C0000128FBD10020FFF7E5FD4FF48060FFF725
:1005D000EBFD0020FFF7F2FD0220FFF7CBFDFFF758
:1005E000D3FD0828FBD1DFF8680500F0ABFB042041
:1005F000FFF739FEDFF8580500F0ACFB01BD00B590
:1006000093B00DA8142100F0B1FB05A8202100F043
:10061000ADFB00A8142100F0A9FB0120FFF7F5FDB8
:100620004720ADF8340000200E9040F2CF700F90BC
:10063000002010900DA95FF0804000F0B6FB5FF045
:100640008040FFF724FE00215FF08040FFF752FF5B
:1006500001215FF08040FFF752FE602005900020EE
:100660000690002007904FF4FA700890002009903F
:1006700005AA01215FF0804000F0EFFB01215FF04F
:100680008040FFF70EFE00215FF08040FFF739FF4A
:100690005FF08040FFF73BFF0420FFF7C5FD40F20D
:1006A0000110009009200190022002900020039088
:1006B00000A9DFF8A00400F09DFD13B000BD00B557
:1006C00093B00DA8142100F051FB05A8202100F0E3
:1006D0004DFB00A8142100F049FB0220FFF795FD17
:1006E0009020ADF8340000200E9042F210700F9070
:1006F000002010900DA9DFF8600400F056FBDFF831
:100700005804FFF7C4FD0021DFF84C04FFF7F2FEA8
:100710000121DFF84404FFF7F2FD6020059000207E
:10072000069000200790002008900020099005AA5C
:100730000121DFF8240400F090FB0121DFF8180408
:10074000FFF7AFFD0021DFF81004FFF7DAFEDFF856
:100750000804FFF7DCFE0420FFF766FD44F24000CA
:10076000009009200190022002900020039000A92F
:10077000DFF8E00300F03EFD13B000BD00B58BB024
:1007800005A8142100F0F2FA00A8142100F0EEFAF6
:100790000420FFF73AFD0820FFF746FDDFF8BC0311
:1007A00000900420019000A9DFF8B40300F022FDBE
:1007B00040F21F10ADF81400002006904FF6FF70B5
:1007C00007900020089005A9DFF8980300F0EDFAE3
:1007D000DFF89003FFF760FD0021DFF88803FFF7E3
:1007E00089FE0021DFF87C03FFF78BFEDD48FFF771
:1007F0008EFE5FF480320121DA48FFF7AEFD002261
:100800000121D848FFF7DEFD00220121D548FFF77E
:100810000EFE00220121D348FFF73EFE5FF40032B6
:100820001021D048FFF799FD00221021CD48FFF795
:10083000C9FD00221021CB48FFF7F9FD022210214B
:10084000C848FFF729FE5FF480324FF48071C54835
:10085000FFF783FD00224FF48071C248FFF7B2FD1D
:1008600000224FF48071BF48FFF7E1FD00224FF4F2
:100870008071BC48FFF710FE5FF400324FF48051E6
:10088000B848FFF76AFD00224FF48051B548FFF7E2
:1008900099FD00224FF48051B248FFF7C8FD0222B3
:1008A0004FF48051AF48FFF7F7FD0BB000BD00B526
:1008B00093B00DA8142100F059FA05A8202100F0EA
:1008C00055FA00A8142100F051FA0820FFF79DFC0A
:1008D0000020ADF8340000200E9000200F90002082
:1008E00010900DA9A04800F060FA9F48FFF7D4FCD3
:1008F00000219D48FFF7FEFD4FF480519A48FFF715
:10090000FEFC60200590002006900020079000204B
:1009100008900020099005AA4FF48051924800F0F9
:100920009CFA4FF480519048FFF7BBFC00218E48A1
:10093000FFF7E7FD8C48FFF7EAFD0420FFF774FCA2
:1009400040F608000090092001900220029000204B
:10095000039000A97F4800F04DFC13B000BD00B526
:1009600099B006A8142100F001FA10A8202100F087
:10097000FDF900A8182100F0F9F90BA8142100F0E6
:10098000F5F94FF40050FFF74FFC0020ADF81800C8
:1009900000200790002008900020099000208DF88A
:1009A000280006A9714800F000FA7048FFF774FCAF
:1009B00000216E48FFF79EFD01216C48FFF79FFC68
:1009C00060201090002011900020129000201390C1
:1009D0000020149000201590002016900020179001
:1009E00010AA0121614800F038FA01215F48FFF7A1
:1009F00058FC00215D48FFF784FD5C48FFF787FD48
:100A000000200090002001900020029000208DF82E
:100A10000C000020ADF80E004FF4005004900020B0
:100A2000059000A9514800F044FA1020FFF7FCFBA4
:100A300044F240000B9009200C9002200D90002001
:100A40000E900BA94A4800F0D5FB19B000BD00B5C7
:100A500085B000A8142100F089F91020FFF7E4FB0D
:100A60002020FFF7E1FB0420FFF7DEFB0820FFF763
:100A7000DBFB40493A48FFF74FFD3F493C48FFF751
:100A80004FFD3E493348FFF74BFD3D4800900020A5
:100A9000019000A9364800F0ADFB3A4800900020D4
:100AA000019000A92B4800F0A5FB374800900020DA
:100AB000019000A92A4800F09DFB2E4800900120DB
:100AC0000190022002900020039000A9244800F029
:100AD00091FB294800900120019002200290002003
:100AE000039000A9224800F085FB244800900120D3
:100AF0000190022002900020039000A9154800F008
:100B000079FB40F2044000900020019000A91F48AA
:100B100000F070FB05B000BD0CED00E00000FA0530
:100B200000100240041002401C1002401810024045
:100B30000020024010E000E0541C00085C1C00088B
:100B4000641C00086C1C0008F8BFFFFF0400014093
:100B500000A24A0400080140000400404140010492
:100B6000000C014000080040000C0040003401402F
:100B70000010014008000804030003040F000F04E4
:100B8000FFBFFC04B6B61004F7A7F604001401403A
:100B9000704710B450F8041B81B102681218001D90
:100BA00050F8043BDC0744BFA9F10104E31852F8F4
:100BB000044B43F8044B091FF9D1EBE710BC704715
:100BC000406B7047806B7047C06B7047006C70471C
:100BD0001CB5040000200090494B4A4A4A492000B5
:100BE00000F092FB01200090454B484A464914F121
:100BF0001C0000F089FB14F11C02210014F13800E4
:100C000000F066FC41480090414B3E4A404914F1D7
:100C1000400000F07CFC3F4800903D4B3E4A3C4980
:100C200014F1500000F073FC01225FF0804114F1D8
:100C3000600000F0B6FCC820019040F2B630009091
:100C400042F210730122354914F1740000F0CFFC18
:100C500042F2107001900020009042F210730122C5
:100C60002F4914F1840000F0C2FC200016BD1CB511
:100C700004002348FFF7A4FF2148FFF7A3FF204803
:100C8000FFF7A2FF1E48FFF7A1FF14F1380100A8EB
:100C900000F021FC0098234900F0E2FC04D814F194
:100CA000400000F052FC0DE000981F4900F0D8FC15
:100CB00004D814F1400000F053FC03E014F14000AC
:100CC00000F038FC0198174900F0CAFC04D814F170
:100CD000500000F03AFC0DE00198134900F0C0FC10
:100CE00004D814F1500000F03BFC03E014F1500074
:100CF00000F020FC002114F1740000F099FC13BDF9
:100D0000000800400200020400100140010001043C
:100D10000008014004000404080008040004004026
:100D200000340140010048430100C842B0FBF1F229
:100D3000521E0A4B1A600022094B1A600522094B09
:100D40001A60704710B504004FF47A712000FFF765
:100D5000EDFF10BD044908607047000014E000E09A
:100D600018E000E010E000E000000020002200F0A9
:100D700089BC7047FEE7FEE7FEE7FEE77047704775
:100D80007047704781627047C16270470163704766
:100D90004163704781637047C16370470164704766
:100DA000416951F001014161704770B504000D00C7
:100DB000002620680600DFF86803844212D0DFF8BE
:100DC000700384420ED0B4F1804F0BD0DFF854038F
:100DD000844207D0DFF85003844203D0DFF84C038D
:100DE000844204D136F07000696851EA0006DFF8E9
:100DF0003003844212D0DFF8380384420ED0B4F1BD
:100E0000804F0BD0DFF81C03844207D0DFF81803B3
:100E1000844203D0DFF81403844204D136F44070D6
:100E2000E96851EA00062660A9682000FFF7ACFFD8
:100E300029882000FFF7A6FFDFF8E402844203D0F0
:100E4000DFF8EC02844203D1297C2000FFF79EFFEB
:100E50002000FFF7A5FF012070BDF8B504000D00CC
:100E6000160000272800012808D010280CD0B0F563
:100E7000807F0FD0B0F5805F12D017E031002000E6
:100E800000F03BF8070011E03100200000F07DF891
:100E900007000BE03100200000F0BFF8070005E07C
:100EA0003100200000F001F90700FFE73800C0B270
:100EB000F2BD02000023087B60F3070333F44070A7
:100EC0008B68034333F480604B68034333F4006062
:100ED0000B68034333F48050CB89034333F4005051
:100EE0000B69034333F480404B69034333F4004000
:100EF0004B6903435364012070472DE9F04104001E
:100F00000D00002600275FF00008206A400840001E
:100F10002062206A070060688046A0690600B60863
:100F2000B60036F07000296851EA000637F002007A
:100F3000296951EA000778084000696851EA00070A
:100F40007748844202D07A48844213D137F00800AF
:100F5000696950EA810737F00400A96850EA8107FF
:100F600038F48070A96951EA000838F40070E96922
:100F700050EA4108C4F80480A661E9682000FFF740
:100F800007FF27620120BDE8F0812DE9F041040050
:100F90000D00002600275FF00008206A30F01000E6
:100FA0002062206A070060688046A069060036F467
:100FB000407636F4E040296850EA012637F02000F8
:100FC000296950EA011737F01000696850EA0117E3
:100FD0005348844202D05648844213D137F08000EF
:100FE000696950EA811737F04000A96850EA811713
:100FF00038F48060A96950EA810838F40060E96932
:1010000050EAC108C4F80480A661E9682000FFF72F
:10101000C1FE27620120BDE8F0812DE9F041040006
:101020000D00002600275FF00008206A30F4807071
:101030002062206A070060688046E0690600B60802
:10104000B60036F07000296851EA000637F40070E7
:10105000296950EA012737F48070696850EA01274E
:101060002F48844202D03248844213D137F40060C2
:10107000696950EA812737F48060A96850EA8127BE
:1010800038F48050A96950EA011838F40050E96931
:1010900050EA4118C4F80480E661E9682000FFF7CF
:1010A0007BFE27620120BDE8F0812DE9F0410400BC
:1010B0000D00002600275FF00008206A30F4805001
:1010C0002062206A070060688046E069060036F406
:1010D000407636F4E040296850EA012637F40050A3
:1010E000296950EA013737F48050696850EA0137BE
:1010F0000B48844202D00E48844204D138F4804028
:10110000A96950EA8118C4F80480E661E968200002
:10111000FFF744FE27620120BDE8F08100000000D7
:10112000002C01400004004000080040000C00407A
:1011300000340140F0B410EB116391FAA1F4B4FA59
:1011400084F491FAA1F5B5FA85F51E680F27E4B28B
:10115000A40017FA04F436EA0404EDB2AD0012FA62
:1011600005F52C431C60F0BC7047F0B410EB116324
:1011700091FAA1F4B4FA84F491FAA1F5B5FA85F5DF
:101180001E680327E4B2A40017FA04F436EA040444
:10119000EDB2AD0012FA05F52C431C60F0BC7047AF
:1011A000F0B410EB116391FAA1F4B4FA84F491FA5B
:1011B000A1F5B5FA85F51E680427E4B2A40017FA74
:1011C00004F436EA0404EDB2AD0012FA05F52C433E
:1011D0001C60F0BC704710B4C36833EA11230C0ADA
:1011E00094FAA4F4B4FA84F412FA04F42343C36026
:1011F00010BC70472DE9F04104000D002868000282
:10120000000C060096FAA6F0B0FA80F00700300055
:10121000F84000282ED03000F840C00728D5082F0D
:1012200004D240F20110B840804607E05FF00110A0
:1012300039000839884050F0806080466A6841462D
:101240002000FFF777FF2A6941462000FFF7C3FF20
:101250006868012802D06868092809D1AA6841464F
:101260002000FFF782FFEA6841462000FFF798FF61
:101270007F1CCCE70120BDE8F0810000C1F30F2204
:1012800002617047C1F30F2242617047016851F05B
:101290000101016070470168490849000160704719
:1012A00041627047406A7047026A0A4302627047AF
:1012B000406B7047806B7047C06B7047006C704725
:1012C0007FF00201016170470069400810F00100E1
:1012D00070477FF00401016170470069800810F0D9
:1012E000010070477FF00801016170470069C00884
:1012F00010F0010070477FF0100101617047006934
:10130000000910F0010070472DE9F04104000D00C4
:1013100016001F00DDF818806560A660E760C4F85D
:101320001880A069002804D101202061102060618C
:1013300005E04FF4807020614FF480506061A16837
:101340006068FFF79BFFE068FFF7A0FF2169E06896
:10135000FFF7AAFF6169E068FFF7A6FF5748206022
:101360002000BDE8F08110B50400E068FFF793FFAE
:101370000021E068FFF794FFE068FFF7A1FFE06855
:10138000FFF7A7FFE068FFF7ADFFE068FFF7B3FFE7
:10139000E068FFF77BFFA1686068FFF773FF10BD8F
:1013A0002DE9F84304004CF25035E068FFF77AFF6E
:1013B0000600A069002831D1E068FFF785FF00280A
:1013C0000FD1E068FFF76EFF0700B81B80B24CF248
:1013D00051318842F0D3A1686068FFF74FFF3B4866
:1013E00069E0E068FFF779FF00280ED1E068FFF7B9
:1013F00059FF801B80B24CF251318842F1D3A16871
:101400006068FFF73BFF314855E0E068FFF750FFA9
:101410008146E068FFF74EFF80462FE0E068FFF767
:1014200065FF00280ED1E068FFF73CFF801B80B20B
:101430004CF251318842F1D3A1686068FFF71EFF7A
:10144000224838E0E068FFF75AFF00280ED1E06834
:10145000FFF728FF801B80B24CF251318842F1D354
:10146000A1686068FFF70AFF184824E0E068FFF70A
:1014700023FF8146E068FFF721FF8046A16860688E
:10148000FFF7FCFEB8EB0907BFB2380000F014F913
:1014900000220B4B00F01EF900220A4B00F01AF953
:1014A00000225FF0804300F0E7F90022064B00F0D5
:1014B000E3F900F005FBBDE8F28300000000FA4408
:1014C00000001040004075400088C34000007A448E
:1014D000016042607047F8B506000F007868FFF7BA
:1014E00042FF3868FFF73FFF3868FFF759FF0400F5
:1014F0007868FFF755FF0500C6E90045F2BDC1F366
:101500000F2202617047C1F30F22426170472DE93B
:10151000F04104000D0016001F00DDF81880256062
:10152000A7606660C4F80C80200000F024F820005A
:10153000BDE8F08110B5040061682068FFF7DFFFA7
:10154000E168A068FFF7DFFF10BD10B50400E16897
:10155000A068FFF7D4FF61682068FFF7D4FF10BDD3
:1015600010B5040061682068FFF7C9FFE168A06852
:10157000FFF7C5FF10BD10B5040061682068FFF7D4
:10158000C2FFE168A068FFF7BEFF10BD016851F01F
:10159000010101607047C1627047026A0A4302623A
:1015A000704770B504000D001600256066600121CB
:1015B0002068FFF7F0FF61682068FFF7EEFF206802
:1015C000FFF7E4FF0020A0600F20E0600020206112
:1015D000200070BD016851F0010101607047C162D7
:1015E0007047026A0A4302627047416370472DE9FF
:1015F000F84306000F0090469946089D099C376005
:10160000C6F80C80A6F80490F5803481B188306863
:10161000FFF7E5FFF1683068FFF7E3FF3068FFF799
:10162000D9FF0021300000F003F83000BDE8F2835C
:1016300038B504000D0020892DB2A84202DAB4F9B1
:10164000080005002DB22089C54202DA20894042F7
:101650000500E0882DB229182068FFF7C6FF31BDCC
:101660004FF0807C1CEB400F94BF1CEB410F05E05A
:1016700040EA010C5FEA4C0C01D28142704718BF6E
:101680008842704700B500BF130096469446103953
:1016900028BFA0E80C50FAD85FEA417C28BF0CC0F4
:1016A00048BF40F8042BC90728BF20F8022B48BFC9
:1016B00000F8012B00BD0000010000BF09D0B0FA06
:1016C00080F18840C91CC1F58461090501EBD02176
:1016D00040057047B0B581EA030C0CF0004C40F2B5
:1016E000FF7515EA11541DBF15EA1357AC42AF42FE
:1016F00039E0E41923EA455343F48013C90241F069
:10170000004141EA505EC7021100A7FB0202002817
:101710004FF00000EEFB01204FF00001E3FB07213A
:1017200018BF42F00102401800214941E3FB0E01BD
:10173000A4F580640F0302D252004041494154F1A4
:1017400001046CDD470872F1004250F1000051EBDA
:101750000451A1F580115CBF41EA0C01B0BD4CEA17
:1017600005510020B0BD05EA1357AC4214BFAF428B
:1017700041E050EA410E1CBF52EA430E02E06146CE
:101780000020B0BD24423C441BD15FEA070EF6D0D6
:10179000090302BF01460020AEF1140EB1FA81F731
:1017A000AEEB070401FA07FE0C37C7F1200100FA7F
:1017B00007F7C8404EEA000E23EA455343F480136E
:1017C000A2E733F00043B3FA83F704BFB2FA82FE14
:1017D00077440B3FE41BB7F1200E2FBF02FA0EF344
:1017E000BB40C7F1200E22FA0EFE38BF43EA0E03BB
:1017F000BA40641C82E750EA410E14BF52EA430E1D
:101800006FF000014FF4001717EB430F8ABF194622
:1018100017EB410FB5E74CEA05510020B0BDD4F1FC
:101820000104B4F120070FDAC4F12007520828BFE1
:1018300042F0010210FA07F501FA07F7E1BF2A4367
:10184000E0403843E1400FE0352C98DCC7F120043C
:1018500052EA400220FA07F218BF42F0010231FAC0
:1018600007F0A1400A43002172F1004250F100004C
:1018700051EB0C01B0BD0000F0B540F2FF7581EAFC
:10188000030C0CF0004C15EA11541DBF15EA135758
:10189000AC42AF42E5E0BC41C1F31301C3F3130313
:1018A000801A994143F4801304D2641E40004941D8
:1018B00080185941C90241EA5051B1FBF3F603FBCC
:1018C0001611A2FB0675D7EBC020A94102D2761EE5
:1018D00080185941C90241EA5051B1FBF3FE03FBA4
:1018E0001E11A2FB0E75D7EBC020A94103D2AEF1A9
:1018F000010E80185941890241EA9051760546EA65
:101900008E2EB1FBF3F603FB1611A2FB0675D7EB87
:101910008020A94102D2761E80185941C90241EAAD
:1019200050514EEA060EB1FBF3F603FB1611A2FB73
:101930000675D7EBC020A94102D2761E8018594106
:10194000C90241EA5051B1FBF3F703FB1711A2FBA7
:101950000735D3EBC020A94167F100070CBF004257
:1019600047F0010766F3D5274FEA1E31B80814F592
:10197000806412DDBD0775F1004250EB0E5051EB53
:10198000045111F5801F5CBF41EA0C01F0BD4CF021
:101990007F6141F0E0410020F0BDBD076D0840EAE5
:1019A0000E5041F48011D4F10104B4F120060ADA9A
:1019B000C4F120060200E04001FA06F3E1401843BA
:1019C000B24015430EE0342C13DCC6F1200445EA86
:1019D00040056D0820FA06F2154321FA06F0A140F1
:1019E0000D43002175F1004250F1000051EB0C0154
:1019F000F0BD00205FEA0C01F0BDCFB992185B4149
:101A0000B3FA83F704BFB2FA82F6BF190B3FB7F1FE
:101A100020062FBF02FA06F3BB40C7F1200622FAC8
:101A200006F638BF3343BA401CB1E419641E33E7ED
:101A30007F4231F00041B1FA81F404BFB0FA80F680
:101A4000A4190B3CB4F120062FBF00FA06F1A14007
:101A5000C4F1200620FA06F638BF3143A0403C1BF3
:101A60001AE7AC421ABF05EA1357AF4212E050EA38
:101A700041061CBF52EA4306BFE750EA4107304621
:101A800061461CBF41EA0551F0BD52EA430C08BF54
:101A9000C143F0BD00204FF4001616EB410F98BF74
:101AA00016EB430F08BF16EB410F24BFC14305E0FF
:101AB00016EB430F0CBF61464CEA0551F0BD000028
:101AC0004FEAF17CBCF1E04C2CBFBCF5001F11E0EB
:101AD0005FEA4C0C34BFBCF17F5F2EE05FEA9C0CE8
:101AE0004FEA0C1C4FEA3C0CC10071F100414CEB79
:101AF00050707047C90241EA5051C00218BF41F00E
:101B0000010141F000414FEA6C50C0F10900212869
:101B100010D240EACC7CCCF1200C11FA0CF070F120
:101B20000040CCF1200C21FA0CF00CF0004C40EB02
:101B30000C0070474FEACC707047490011F5001F48
:101B400004D84FEACC10FF30C0057047C817704763
:101B50001348006850F001001149086011480068FE
:101B6000114908400F4908600D4800680F490840B6
:101B70000B4908600A48006830F480200849086072
:101B80000848006830F4FE00064908605FF41F0052
:101B9000074908605FF00060064908607047000070
:101BA00000100240041002400000FFF8FFFFF6FEA4
:101BB0000810024008ED00E010B5074979441831DB
:101BC000064C7C44163404E00A68081D5118884706
:101BD0000146A142F8D110BD080000001800000025
:101BE000B3EFFFFF040000007C01000000000020B4
:101BF0000000000000F00BF8002801D0FFF7DCFF28
:101C00000020C046C046FEF79EFC00F002F801200E
:101C1000704700F001B800000746384600F002F8AF
:101C2000FBE7000080B5C046C046024A11001820FC
:101C3000ABBEFBE726000200014880470148004791
:101C4000511B0008491C0008C046C046C046C0469B
:101C5000FFF7D0FF000000000404040000000800AB
:101C60000000080000000800000008000002040650
:101C7000080A0C00FFF7FEBFFFF7FEBFFFF7FEBF2D
:101C8000FFF7FEBFFFF7FEBFFFF7FEBFFFF7FEBF88
:101C9000FFF7FEBFFFF7FEBFFFF7FEBFFFF7FEBF78
:101CA000FFF7FEBFFFF7FEBFFFF7FEBFFFF7FEBF68
:101CB000FFF7FEBFFFF7FEBFFFF7FEBFFFF7FEBF58
:101CC000FFF7FEBFFFF7FEBFFFF7FEBFFFF7FEBF48
:101CD000FFF7FEBFFFF7FEBFFFF7FEBFFFF7FEBF38
:101CE000FFF7FEBFFFF7FEBFFFF7FEBFFFF7FEBF28
:101CF000FFF7FEBFFFF7FEBFFFF7FEBFFFF7FEBF18
:101D0000FFF7FEBFFFF7FEBFFFF7FEBFFFF7FEBF07
:101D1000FFF7FEBFFFF7FEBFFFF7FEBFFFF7FEBFF7
:101D2000FFF7FEBFFFF7FEBFFFF7FEBFFFF7FEBFE7
:101D3000FFF7FEBFFFF7FEBFFFF7FEBFFFF7FEBFD7
:101D4000FFF7FEBFFFF7FEBFFFF7FEBFFFF7FEBFC7
:101D5000FFF7FEBFFFF7FEBFFFF7FEBFFFF7FEBFB7
:081D6000FFF7FEBF00A24A04D8
:0400000508001C498A
:00000001FF
